{
  "contractName": "Inbox",
  "abi": [
    {
      "inputs": [],
      "stateMutability": "nonpayable",
      "type": "constructor"
    },
    {
      "anonymous": false,
      "inputs": [
        {
          "indexed": false,
          "internalType": "string",
          "name": "response",
          "type": "string"
        }
      ],
      "name": "inboxResponse",
      "type": "event"
    },
    {
      "anonymous": false,
      "inputs": [
        {
          "indexed": false,
          "internalType": "string",
          "name": "_ipfsHash",
          "type": "string"
        },
        {
          "indexed": false,
          "internalType": "string",
          "name": "_address",
          "type": "string"
        }
      ],
      "name": "ipfsSent",
      "type": "event"
    },
    {
      "inputs": [
        {
          "internalType": "string",
          "name": "",
          "type": "string"
        }
      ],
      "name": "ipfsInbox",
      "outputs": [
        {
          "internalType": "string",
          "name": "",
          "type": "string"
        }
      ],
      "stateMutability": "view",
      "type": "function",
      "constant": true
    },
    {
      "inputs": [
        {
          "internalType": "string",
          "name": "_address",
          "type": "string"
        },
        {
          "internalType": "string",
          "name": "_ipfsHash",
          "type": "string"
        }
      ],
      "name": "sendIPFS",
      "outputs": [],
      "stateMutability": "nonpayable",
      "type": "function"
    },
    {
      "inputs": [
        {
          "internalType": "string",
          "name": "_address",
          "type": "string"
        }
      ],
      "name": "getHash",
      "outputs": [
        {
          "internalType": "string",
          "name": "",
          "type": "string"
        }
      ],
      "stateMutability": "view",
      "type": "function",
      "constant": true
    }
  ],
  "bytecode": "0x608060405234801561001057600080fd5b506109bf806100206000396000f3fe608060405234801561001057600080fd5b50600436106100415760003560e01c80633bc86509146100465780635b6beeb914610062578063d9fb97f714610092575b600080fd5b610060600480360381019061005b91906104ac565b6100c2565b005b61007c60048036038101906100779190610524565b6101e7565b60405161008991906105f5565b60405180910390f35b6100ac60048036038101906100a79190610524565b61029c565b6040516100b991906105f5565b60405180910390f35b6000826040516100d29190610653565b908152602001604051809103902080546100eb90610699565b80601f016020809104026020016040519081016040528092919081815260200182805461011790610699565b80156101645780601f1061013957610100808354040283529160200191610164565b820191906000526020600020905b81548152906001019060200180831161014757829003601f168201915b50505050506000819050600081511461017c57600080fd5b8260008560405161018d9190610653565b908152602001604051809103902090816101a79190610880565b507fe20751acac1c1604f322f90c67a302e99b44a472645e625269c08832cded234083856040516101d9929190610952565b60405180910390a150505050565b6060600080836040516101fa9190610653565b9081526020016040518091039020805461021390610699565b80601f016020809104026020016040519081016040528092919081815260200182805461023f90610699565b801561028c5780601f106102615761010080835404028352916020019161028c565b820191906000526020600020905b81548152906001019060200180831161026f57829003601f168201915b5050505050905080915050919050565b60008180516020810182018051848252602083016020850120818352809550505050505060009150905080546102d190610699565b80601f01602080910402602001604051908101604052809291908181526020018280546102fd90610699565b801561034a5780601f1061031f5761010080835404028352916020019161034a565b820191906000526020600020905b81548152906001019060200180831161032d57829003601f168201915b505050505081565b6000604051905090565b600080fd5b600080fd5b600080fd5b600080fd5b6000601f19601f8301169050919050565b7f4e487b7100000000000000000000000000000000000000000000000000000000600052604160045260246000fd5b6103b982610370565b810181811067ffffffffffffffff821117156103d8576103d7610381565b5b80604052505050565b60006103eb610352565b90506103f782826103b0565b919050565b600067ffffffffffffffff82111561041757610416610381565b5b61042082610370565b9050602081019050919050565b82818337600083830152505050565b600061044f61044a846103fc565b6103e1565b90508281526020810184848401111561046b5761046a61036b565b5b61047684828561042d565b509392505050565b600082601f83011261049357610492610366565b5b81356104a384826020860161043c565b91505092915050565b600080604083850312156104c3576104c261035c565b5b600083013567ffffffffffffffff8111156104e1576104e0610361565b5b6104ed8582860161047e565b925050602083013567ffffffffffffffff81111561050e5761050d610361565b5b61051a8582860161047e565b9150509250929050565b60006020828403121561053a5761053961035c565b5b600082013567ffffffffffffffff81111561055857610557610361565b5b6105648482850161047e565b91505092915050565b600081519050919050565b600082825260208201905092915050565b60005b838110156105a757808201518184015260208101905061058c565b838111156105b6576000848401525b50505050565b60006105c78261056d565b6105d18185610578565b93506105e1818560208601610589565b6105ea81610370565b840191505092915050565b6000602082019050818103600083015261060f81846105bc565b905092915050565b600081905092915050565b600061062d8261056d565b6106378185610617565b9350610647818560208601610589565b80840191505092915050565b600061065f8284610622565b915081905092915050565b7f4e487b7100000000000000000000000000000000000000000000000000000000600052602260045260246000fd5b600060028204905060018216806106b157607f821691505b6020821081036106c4576106c361066a565b5b50919050565b60008190508160005260206000209050919050565b60006020601f8301049050919050565b600082821b905092915050565b60006008830261072c7fffffffffffffffffffffffffffffffffffffffffffffffffffffffffffffffff826106ef565b61073686836106ef565b95508019841693508086168417925050509392505050565b6000819050919050565b6000819050919050565b600061077d6107786107738461074e565b610758565b61074e565b9050919050565b6000819050919050565b61079783610762565b6107ab6107a382610784565b8484546106fc565b825550505050565b600090565b6107c06107b3565b6107cb81848461078e565b505050565b5b818110156107ef576107e46000826107b8565b6001810190506107d1565b5050565b601f82111561083457610805816106ca565b61080e846106df565b8101602085101561081d578190505b610831610829856106df565b8301826107d0565b50505b505050565b600082821c905092915050565b600061085760001984600802610839565b1980831691505092915050565b60006108708383610846565b9150826002028217905092915050565b6108898261056d565b67ffffffffffffffff8111156108a2576108a1610381565b5b6108ac8254610699565b6108b78282856107f3565b600060209050601f8311600181146108ea57600084156108d8578287015190505b6108e28582610864565b86555061094a565b601f1984166108f8866106ca565b60005b82811015610920578489015182556001820191506020850194506020810190506108fb565b8683101561093d5784890151610939601f891682610846565b8355505b6001600288020188555050505b505050505050565b6000604082019050818103600083015261096c81856105bc565b9050818103602083015261098081846105bc565b9050939250505056fea264697066735822122070ec6a0ab1e59d2988aca98d13c6d97b65a0aaf6c7dd77342318635f5a18c6c764736f6c634300080f0033",
  "immutableReferences": {},
  "source": "pragma solidity ^0.8.0;\r\n\r\ncontract Inbox{\r\n    //Structure\r\n    mapping (string=>string) public ipfsInbox;\r\n    \r\n    //Events\r\n    event ipfsSent(string _ipfsHash, string _address);\r\n    event inboxResponse(string response);\r\n    \r\n    //Modifiers\r\n    modifier notFull (string memory _string) {\r\n    bytes memory stringTest = bytes(_string); \r\n    require(stringTest.length==0); \r\n    _;\r\n    }\r\n    \r\n    // An empty constructor that creates an instance of the conteact\r\n    constructor() public{}\r\n    \r\n    //takes in receiver's address and IPFS hash. Places the IPFSadress in the receiver's inbox\r\n    function sendIPFS(string memory _address, string memory _ipfsHash) notFull(ipfsInbox[_address]) public{\r\n        ipfsInbox[_address] = _ipfsHash;\r\n        emit ipfsSent(_ipfsHash, _address);\r\n    }\r\n    \r\n\r\n    //retrieves hash\r\n    function getHash(string memory _address) public view returns(string memory) {\r\n        string memory ipfs_hash=ipfsInbox[_address];\r\n         //emit inboxResponse(ipfs_hash);\r\n        return ipfs_hash;\r\n    }\r\n    \r\n}",
  "sourcePath": "F:\\Cloned\\Music-share-platform-through-Blockchain\\contracts\\Inbox.sol",
  "compiler": {
    "name": "solc",
    "version": "0.8.15+commit.e14f2714.Emscripten.clang"
  },
  "schemaVersion": "3.4.4",
  "updatedAt": "2022-06-23T17:26:53.247Z",
  "networkType": "ethereum",
  "devdoc": {
    "kind": "dev",
    "methods": {},
    "version": 1
  },
  "userdoc": {
    "kind": "user",
    "methods": {},
    "version": 1
  }
}